{
  "_format": "hh-sol-artifact-1",
  "contractName": "SimpleFlashLoan",
  "sourceName": "contracts/AAVE_FlashLoan.sol",
  "abi": [
    {
      "inputs": [
        {
          "internalType": "contract IPoolAddressesProvider",
          "name": "provider",
          "type": "address"
        }
      ],
      "stateMutability": "nonpayable",
      "type": "constructor"
    },
    {
      "anonymous": false,
      "inputs": [
        {
          "indexed": false,
          "internalType": "address",
          "name": "asset",
          "type": "address"
        },
        {
          "indexed": false,
          "internalType": "uint256",
          "name": "val",
          "type": "uint256"
        }
      ],
      "name": "Log",
      "type": "event"
    },
    {
      "inputs": [],
      "name": "ADDRESSES_PROVIDER",
      "outputs": [
        {
          "internalType": "contract IPoolAddressesProvider",
          "name": "",
          "type": "address"
        }
      ],
      "stateMutability": "view",
      "type": "function"
    },
    {
      "inputs": [],
      "name": "POOL",
      "outputs": [
        {
          "internalType": "contract IPool",
          "name": "",
          "type": "address"
        }
      ],
      "stateMutability": "view",
      "type": "function"
    },
    {
      "inputs": [
        {
          "internalType": "address",
          "name": "asset",
          "type": "address"
        },
        {
          "internalType": "uint256",
          "name": "amount",
          "type": "uint256"
        }
      ],
      "name": "createFlashLoan",
      "outputs": [],
      "stateMutability": "nonpayable",
      "type": "function"
    },
    {
      "inputs": [
        {
          "internalType": "address",
          "name": "asset",
          "type": "address"
        },
        {
          "internalType": "uint256",
          "name": "amount",
          "type": "uint256"
        },
        {
          "internalType": "uint256",
          "name": "premium",
          "type": "uint256"
        },
        {
          "internalType": "address",
          "name": "initiator",
          "type": "address"
        },
        {
          "internalType": "bytes",
          "name": "params",
          "type": "bytes"
        }
      ],
      "name": "executeOperation",
      "outputs": [
        {
          "internalType": "bool",
          "name": "",
          "type": "bool"
        }
      ],
      "stateMutability": "nonpayable",
      "type": "function"
    }
  ],
  "bytecode": "0x60c06040523480156200001157600080fd5b5060405162000c0638038062000c06833981810160405281019062000037919062000197565b808073ffffffffffffffffffffffffffffffffffffffff1660808173ffffffffffffffffffffffffffffffffffffffff16815250508073ffffffffffffffffffffffffffffffffffffffff1663026b1d5f6040518163ffffffff1660e01b8152600401602060405180830381865afa158015620000b8573d6000803e3d6000fd5b505050506040513d601f19601f82011682018060405250810190620000de9190620001fa565b73ffffffffffffffffffffffffffffffffffffffff1660a08173ffffffffffffffffffffffffffffffffffffffff168152505050506200022c565b600080fd5b600073ffffffffffffffffffffffffffffffffffffffff82169050919050565b60006200014b826200011e565b9050919050565b60006200015f826200013e565b9050919050565b620001718162000152565b81146200017d57600080fd5b50565b600081519050620001918162000166565b92915050565b600060208284031215620001b057620001af62000119565b5b6000620001c08482850162000180565b91505092915050565b620001d4816200013e565b8114620001e057600080fd5b50565b600081519050620001f481620001c9565b92915050565b60006020828403121562000213576200021262000119565b5b60006200022384828501620001e3565b91505092915050565b60805160a0516109a76200025f600039600081816101cc0152818161029a01526103de0152600060db01526109a76000f3fe608060405234801561001057600080fd5b506004361061004c5760003560e01c80630542975c146100515780630a6095da1461006f5780631b11d0ff1461008b5780637535d246146100bb575b600080fd5b6100596100d9565b6040516100669190610495565b60405180910390f35b6100896004803603810190610084919061052e565b6100fd565b005b6100a560048036038101906100a091906105d3565b610264565b6040516100b29190610688565b60405180910390f35b6100c36103dc565b6040516100d091906106c4565b60405180910390f35b7f000000000000000000000000000000000000000000000000000000000000000081565b6000309050600060405180602001604052806000815250905060007ff950957d2407bed19dc99b718b46b4ce6090c05589006dfb86fd22c34865b23e858673ffffffffffffffffffffffffffffffffffffffff166370a08231306040518263ffffffff1660e01b815260040161017391906106ee565b602060405180830381865afa158015610190573d6000803e3d6000fd5b505050506040513d601f19601f820116820180604052508101906101b4919061071e565b6040516101c292919061075a565b60405180910390a17f000000000000000000000000000000000000000000000000000000000000000073ffffffffffffffffffffffffffffffffffffffff166342b0b77c84878786866040518663ffffffff1660e01b815260040161022b959493929190610839565b600060405180830381600087803b15801561024557600080fd5b505af1158015610259573d6000803e3d6000fd5b505050505050505050565b60008061027a868861040090919063ffffffff16565b90508773ffffffffffffffffffffffffffffffffffffffff1663095ea7b37f0000000000000000000000000000000000000000000000000000000000000000836040518363ffffffff1660e01b81526004016102d792919061075a565b6020604051808303816000875af11580156102f6573d6000803e3d6000fd5b505050506040513d601f19601f8201168201806040525081019061031a91906108bf565b507ff950957d2407bed19dc99b718b46b4ce6090c05589006dfb86fd22c34865b23e888973ffffffffffffffffffffffffffffffffffffffff166370a08231306040518263ffffffff1660e01b815260040161037691906106ee565b602060405180830381865afa158015610393573d6000803e3d6000fd5b505050506040513d601f19601f820116820180604052508101906103b7919061071e565b6040516103c592919061075a565b60405180910390a160019150509695505050505050565b7f000000000000000000000000000000000000000000000000000000000000000081565b6000818361040e919061091b565b905092915050565b600073ffffffffffffffffffffffffffffffffffffffff82169050919050565b6000819050919050565b600061045b61045661045184610416565b610436565b610416565b9050919050565b600061046d82610440565b9050919050565b600061047f82610462565b9050919050565b61048f81610474565b82525050565b60006020820190506104aa6000830184610486565b92915050565b600080fd5b600080fd5b60006104c582610416565b9050919050565b6104d5816104ba565b81146104e057600080fd5b50565b6000813590506104f2816104cc565b92915050565b6000819050919050565b61050b816104f8565b811461051657600080fd5b50565b60008135905061052881610502565b92915050565b60008060408385031215610545576105446104b0565b5b6000610553858286016104e3565b925050602061056485828601610519565b9150509250929050565b600080fd5b600080fd5b600080fd5b60008083601f8401126105935761059261056e565b5b8235905067ffffffffffffffff8111156105b0576105af610573565b5b6020830191508360018202830111156105cc576105cb610578565b5b9250929050565b60008060008060008060a087890312156105f0576105ef6104b0565b5b60006105fe89828a016104e3565b965050602061060f89828a01610519565b955050604061062089828a01610519565b945050606061063189828a016104e3565b935050608087013567ffffffffffffffff811115610652576106516104b5565b5b61065e89828a0161057d565b92509250509295509295509295565b60008115159050919050565b6106828161066d565b82525050565b600060208201905061069d6000830184610679565b92915050565b60006106ae82610462565b9050919050565b6106be816106a3565b82525050565b60006020820190506106d960008301846106b5565b92915050565b6106e8816104ba565b82525050565b600060208201905061070360008301846106df565b92915050565b60008151905061071881610502565b92915050565b600060208284031215610734576107336104b0565b5b600061074284828501610709565b91505092915050565b610754816104f8565b82525050565b600060408201905061076f60008301856106df565b61077c602083018461074b565b9392505050565b600081519050919050565b600082825260208201905092915050565b60005b838110156107bd5780820151818401526020810190506107a2565b838111156107cc576000848401525b50505050565b6000601f19601f8301169050919050565b60006107ee82610783565b6107f8818561078e565b935061080881856020860161079f565b610811816107d2565b840191505092915050565b600061ffff82169050919050565b6108338161081c565b82525050565b600060a08201905061084e60008301886106df565b61085b60208301876106df565b610868604083018661074b565b818103606083015261087a81856107e3565b9050610889608083018461082a565b9695505050505050565b61089c8161066d565b81146108a757600080fd5b50565b6000815190506108b981610893565b92915050565b6000602082840312156108d5576108d46104b0565b5b60006108e3848285016108aa565b91505092915050565b7f4e487b7100000000000000000000000000000000000000000000000000000000600052601160045260246000fd5b6000610926826104f8565b9150610931836104f8565b9250827fffffffffffffffffffffffffffffffffffffffffffffffffffffffffffffffff03821115610966576109656108ec565b5b82820190509291505056fea2646970667358221220a5e16f1dbf8cc2d443de1fc3783d445a8a91a2c925151eb94c2b680f3b51926964736f6c634300080a0033",
  "linkReferences": {},
  "deployedLinkReferences": {}
}