{
  "contractName": "StakingPool",
  "abi": [
    {
      "inputs": [],
      "stateMutability": "nonpayable",
      "type": "constructor"
    },
    {
      "anonymous": false,
      "inputs": [
        {
          "indexed": false,
          "internalType": "address",
          "name": "investor",
          "type": "address"
        }
      ],
      "name": "NewInvestor",
      "type": "event"
    },
    {
      "inputs": [
        {
          "internalType": "address",
          "name": "",
          "type": "address"
        }
      ],
      "name": "ChangeClaimed",
      "outputs": [
        {
          "internalType": "bool",
          "name": "",
          "type": "bool"
        }
      ],
      "stateMutability": "view",
      "type": "function",
      "constant": true
    },
    {
      "inputs": [],
      "name": "admin",
      "outputs": [
        {
          "internalType": "address payable",
          "name": "",
          "type": "address"
        }
      ],
      "stateMutability": "view",
      "type": "function",
      "constant": true
    },
    {
      "inputs": [
        {
          "internalType": "address",
          "name": "",
          "type": "address"
        }
      ],
      "name": "balances",
      "outputs": [
        {
          "internalType": "uint256",
          "name": "",
          "type": "uint256"
        }
      ],
      "stateMutability": "view",
      "type": "function",
      "constant": true
    },
    {
      "inputs": [],
      "name": "depositContract",
      "outputs": [
        {
          "internalType": "contract IDepositContract",
          "name": "",
          "type": "address"
        }
      ],
      "stateMutability": "view",
      "type": "function",
      "constant": true
    },
    {
      "inputs": [],
      "name": "end",
      "outputs": [
        {
          "internalType": "uint256",
          "name": "",
          "type": "uint256"
        }
      ],
      "stateMutability": "view",
      "type": "function",
      "constant": true
    },
    {
      "inputs": [],
      "name": "finalized",
      "outputs": [
        {
          "internalType": "bool",
          "name": "",
          "type": "bool"
        }
      ],
      "stateMutability": "view",
      "type": "function",
      "constant": true
    },
    {
      "inputs": [
        {
          "internalType": "bytes",
          "name": "",
          "type": "bytes"
        }
      ],
      "name": "pubkeyUsed",
      "outputs": [
        {
          "internalType": "bool",
          "name": "",
          "type": "bool"
        }
      ],
      "stateMutability": "view",
      "type": "function",
      "constant": true
    },
    {
      "inputs": [],
      "name": "totalChange",
      "outputs": [
        {
          "internalType": "uint256",
          "name": "",
          "type": "uint256"
        }
      ],
      "stateMutability": "view",
      "type": "function",
      "constant": true
    },
    {
      "inputs": [],
      "name": "totalInvested",
      "outputs": [
        {
          "internalType": "uint256",
          "name": "",
          "type": "uint256"
        }
      ],
      "stateMutability": "view",
      "type": "function",
      "constant": true
    },
    {
      "inputs": [],
      "name": "invest",
      "outputs": [],
      "stateMutability": "payable",
      "type": "function",
      "payable": true
    },
    {
      "inputs": [],
      "name": "finalize",
      "outputs": [],
      "stateMutability": "nonpayable",
      "type": "function"
    },
    {
      "inputs": [
        {
          "internalType": "bytes",
          "name": "pubkey",
          "type": "bytes"
        },
        {
          "internalType": "bytes",
          "name": "withdrawal_credentials",
          "type": "bytes"
        },
        {
          "internalType": "bytes",
          "name": "signature",
          "type": "bytes"
        },
        {
          "internalType": "bytes32",
          "name": "deposit_data_root",
          "type": "bytes32"
        }
      ],
      "name": "deposit",
      "outputs": [],
      "stateMutability": "nonpayable",
      "type": "function"
    },
    {
      "inputs": [],
      "name": "getChange",
      "outputs": [],
      "stateMutability": "nonpayable",
      "type": "function"
    }
  ],
  "bytecode": "0x60806040526f219ab540356cbb839cbe05303d7705fa600860006101000a81548173ffffffffffffffffffffffffffffffffffffffff021916908373ffffffffffffffffffffffffffffffffffffffff16021790555034801561006157600080fd5b5033600160006101000a81548173ffffffffffffffffffffffffffffffffffffffff021916908373ffffffffffffffffffffffffffffffffffffffff16021790555062093a804201600281905550610f6d806100be6000396000f3fe6080604052600436106100c25760003560e01c80637abdf0a31161007f578063e8b5e51f11610059578063e8b5e51f1461045c578063e94ad65b14610466578063efbe1c1c146104a7578063f851a440146104d2576100c2565b80637abdf0a3146103b1578063b3f05b9714610418578063b7ed5abc14610445576100c2565b806322895118146100c757806327e235e3146102015780633624501a146102665780634bb278f3146103445780635216aeec1461035b5780635411c7bd14610386575b600080fd5b3480156100d357600080fd5b506101ff600480360360808110156100ea57600080fd5b810190808035906020019064010000000081111561010757600080fd5b82018360208201111561011957600080fd5b8035906020019184600183028401116401000000008311171561013b57600080fd5b90919293919293908035906020019064010000000081111561015c57600080fd5b82018360208201111561016e57600080fd5b8035906020019184600183028401116401000000008311171561019057600080fd5b9091929391929390803590602001906401000000008111156101b157600080fd5b8201836020820111156101c357600080fd5b803590602001918460018302840111640100000000831117156101e557600080fd5b909192939192939080359060200190929190505050610513565b005b34801561020d57600080fd5b506102506004803603602081101561022457600080fd5b81019080803573ffffffffffffffffffffffffffffffffffffffff16906020019092919050505061084d565b6040518082815260200191505060405180910390f35b34801561027257600080fd5b5061032c6004803603602081101561028957600080fd5b81019080803590602001906401000000008111156102a657600080fd5b8201836020820111156102b857600080fd5b803590602001918460018302840111640100000000831117156102da57600080fd5b91908080601f016020809104026020016040519081016040528093929190818152602001838380828437600081840152601f19601f820116905080830192505050505050509192919290505050610865565b60405180821515815260200191505060405180910390f35b34801561035057600080fd5b5061035961089b565b005b34801561036757600080fd5b506103706109d1565b6040518082815260200191505060405180910390f35b34801561039257600080fd5b5061039b6109d7565b6040518082815260200191505060405180910390f35b3480156103bd57600080fd5b50610400600480360360208110156103d457600080fd5b81019080803573ffffffffffffffffffffffffffffffffffffffff1690602001909291905050506109dd565b60405180821515815260200191505060405180910390f35b34801561042457600080fd5b5061042d6109fd565b60405180821515815260200191505060405180910390f35b34801561045157600080fd5b5061045a610a10565b005b610464610d07565b005b34801561047257600080fd5b5061047b610ee5565b604051808273ffffffffffffffffffffffffffffffffffffffff16815260200191505060405180910390f35b3480156104b357600080fd5b506104bc610f0b565b6040518082815260200191505060405180910390f35b3480156104de57600080fd5b506104e7610f11565b604051808273ffffffffffffffffffffffffffffffffffffffff16815260200191505060405180910390f35b60011515600360009054906101000a900460ff1615151461059c576040517f08c379a00000000000000000000000000000000000000000000000000000000081526004018080602001828103825260098152602001807f546f6f206561726c79000000000000000000000000000000000000000000000081525060200191505060405180910390fd5b600160009054906101000a900473ffffffffffffffffffffffffffffffffffffffff1673ffffffffffffffffffffffffffffffffffffffff163373ffffffffffffffffffffffffffffffffffffffff161461065f576040517f08c379a000000000000000000000000000000000000000000000000000000000815260040180806020018281038252600a8152602001807f6f6e6c792061646d696e0000000000000000000000000000000000000000000081525060200191505060405180910390fd5b602047101561066d57600080fd5b6000151560078888604051808383808284378083019250505092505050908152602001604051809103902060009054906101000a900460ff1615151461071b576040517f08c379a000000000000000000000000000000000000000000000000000000000815260040180806020018281038252601c8152602001807f74686973207075626b65792077617320616c726561647920757365640000000081525060200191505060405180910390fd5b600860009054906101000a900473ffffffffffffffffffffffffffffffffffffffff1673ffffffffffffffffffffffffffffffffffffffff166322895118888888888888886040518863ffffffff1660e01b81526004018080602001806020018060200185815260200184810384528b8b82818152602001925080828437600081840152601f19601f8201169050808301925050508481038352898982818152602001925080828437600081840152601f19601f8201169050808301925050508481038252878782818152602001925080828437600081840152601f19601f8201169050808301925050509a5050505050505050505050600060405180830381600087803b15801561082c57600080fd5b505af1158015610840573d6000803e3d6000fd5b5050505050505050505050565b60006020528060005260406000206000915090505481565b6007818051602081018201805184825260208301602085012081835280955050505050506000915054906101000a900460ff1681565b600254421015610913576040517f08c379a00000000000000000000000000000000000000000000000000000000081526004018080602001828103825260098152602001807f546f6f206561726c79000000000000000000000000000000000000000000000081525060200191505060405180910390fd5b60001515600360009054906101000a900460ff1615151461099c576040517f08c379a00000000000000000000000000000000000000000000000000000000081526004018080602001828103825260118152602001807f616c72656164792066696e616c697a656400000000000000000000000000000081525060200191505060405180910390fd5b6001600360006101000a81548160ff02191690831515021790555047600481905550602047816109c857fe5b06600581905550565b60045481565b60055481565b60066020528060005260406000206000915054906101000a900460ff1681565b600360009054906101000a900460ff1681565b60011515600360009054906101000a900460ff16151514610a99576040517f08c379a000000000000000000000000000000000000000000000000000000000815260040180806020018281038252600d8152602001807f4e6f742066696e616c697a65640000000000000000000000000000000000000081525060200191505060405180910390fd5b60008060003373ffffffffffffffffffffffffffffffffffffffff1673ffffffffffffffffffffffffffffffffffffffff1681526020019081526020016000205411610b4d576040517f08c379a000000000000000000000000000000000000000000000000000000000815260040180806020018281038252600f8152602001807f6e6f7420616e20696e766573746f72000000000000000000000000000000000081525060200191505060405180910390fd5b60001515600660003373ffffffffffffffffffffffffffffffffffffffff1673ffffffffffffffffffffffffffffffffffffffff16815260200190815260200160002060009054906101000a900460ff16151514610c13576040517f08c379a000000000000000000000000000000000000000000000000000000000815260040180806020018281038252600f8152602001807f616c726561647920636c61696d6564000000000000000000000000000000000081525060200191505060405180910390fd5b60006004546000803373ffffffffffffffffffffffffffffffffffffffff1673ffffffffffffffffffffffffffffffffffffffff168152602001908152602001600020546005540281610c6257fe5b0490503373ffffffffffffffffffffffffffffffffffffffff166108fc829081150290604051600060405180830381858888f19350505050158015610cab573d6000803e3d6000fd5b506001600660003373ffffffffffffffffffffffffffffffffffffffff1673ffffffffffffffffffffffffffffffffffffffff16815260200190815260200160002060006101000a81548160ff02191690831515021790555050565b6002544210610d7e576040517f08c379a00000000000000000000000000000000000000000000000000000000081526004018080602001828103825260088152602001807f746f6f206c61746500000000000000000000000000000000000000000000000081525060200191505060405180910390fd5b60008060003373ffffffffffffffffffffffffffffffffffffffff1673ffffffffffffffffffffffffffffffffffffffff168152602001908152602001600020541415610e13577f97d33a7365e760e859a3453f70484ea24a4aeb75478205a52ac35174ead0ccf633604051808273ffffffffffffffffffffffffffffffffffffffff16815260200191505060405180910390a15b600060646001340281610e2257fe5b04905060008134039050600160009054906101000a900473ffffffffffffffffffffffffffffffffffffffff1673ffffffffffffffffffffffffffffffffffffffff166108fc829081150290604051600060405180830381858888f19350505050158015610e94573d6000803e3d6000fd5b50346000803373ffffffffffffffffffffffffffffffffffffffff1673ffffffffffffffffffffffffffffffffffffffff168152602001908152602001600020600082825401925050819055505050565b600860009054906101000a900473ffffffffffffffffffffffffffffffffffffffff1681565b60025481565b600160009054906101000a900473ffffffffffffffffffffffffffffffffffffffff168156fea2646970667358221220befb772670cca1ad722d85c29e44f176736cf843a33bfc7eb7f13965b48bfdd764736f6c63430007050033",
  "immutableReferences": {},
  "source": "pragma solidity ^0.7.5;\n\ninterface IDepositContract {\n    function deposit(\n        bytes calldata pubkey,\n        bytes calldata withdrawal_credentials,\n        bytes calldata signature,\n        bytes32 deposit_data_root\n    ) external payable;\n}\n\ncontract StakingPool{\n    mapping(address=>uint) public balances;\n    address payable  public admin;\n    uint public end;\n    bool public finalized;\n    uint public totalInvested;\n    uint public totalChange;\n    mapping(address=>bool) public ChangeClaimed;\n    mapping(bytes=>bool) public pubkeyUsed;\n    IDepositContract public depositContract=IDepositContract(0x00000000219ab540356cBB839Cbe05303d7705Fa);\n    event NewInvestor(address investor);\n    constructor(){\n        admin=payable(msg.sender);\n        end=block.timestamp+ 7 days;\n    }\n\n    function invest() external  payable{\n        require(block.timestamp<end,'too late');\n        if(balances[msg.sender]==0){\n            emit NewInvestor(msg.sender);\n        }\n        uint fee=msg.value * 1/100;\n        uint amountInvested=msg.value-fee;\n        admin.transfer(amountInvested);\n        balances[msg.sender]+=msg.value;\n    }\n    function finalize() external {\n        require(block.timestamp >= end,\"Too early\");\n        require(finalized==false,\"already finalized\");\n        finalized=true;\n        totalInvested=address(this).balance;\n        totalChange=address(this).balance % 32;\n    }\n    function deposit(\n        bytes calldata pubkey,\n        bytes calldata withdrawal_credentials,\n        bytes calldata signature,\n        bytes32 deposit_data_root\n    ) external{\n        require(finalized==true,\"Too early\");\n        require(msg.sender==admin,\"only admin\");\n        require(address(this).balance >=32);\n        require(pubkeyUsed[pubkey]==false,\"this pubkey was already used\");\n        depositContract.deposit(pubkey, withdrawal_credentials, signature, deposit_data_root);\n    }\n    function getChange() external{\n        require(finalized==true,\"Not finalized\");\n        require(balances[msg.sender]>0,\"not an investor\");\n        require(ChangeClaimed[msg.sender]==false,\"already claimed\");\n        uint amount=totalChange * balances[msg.sender] /totalInvested;\n        payable(msg.sender).transfer(amount);\n        ChangeClaimed[msg.sender]=true;\n    }\n    \n}",
  "sourcePath": "/Users/pratyushbh/Desktop/Defi_hack/Truffle_Blockend/contracts/StakingPool.sol",
  "compiler": {
    "name": "solc",
    "version": "0.7.5+commit.eb77ed08.Emscripten.clang"
  },
  "schemaVersion": "3.4.10",
  "updatedAt": "2022-10-01T11:54:00.706Z",
  "networkType": "ethereum",
  "devdoc": {
    "kind": "dev",
    "methods": {},
    "version": 1
  },
  "userdoc": {
    "kind": "user",
    "methods": {},
    "version": 1
  }
}